:100000008328B4004A202008210403197E28782080
:1000100084133408800664000D280E28A00A0319F2
:10002000A10F0B2880067E286400242003181428C2
:100030002F200830A30030202420A20C1F28A30B5F
:100040001B28302022080800360884003408841752
:1000500080048413000533193406FF3E080033176B
:10006000330D0639A0003E20A100A00A3E20331F18
:100070005C283313A000023073205C2800308A0013
:1000800020088207013475340334153400343C34BD
:100090000C34D934FF3A841780057E28A301A200CE
:1000A000FF30A207031CA307031C7E280330A10016
:1000B000DF305C205028A101E83EA000A109FC30FF
:1000C000031C6528A00703186228A0076400A10F7D
:1000D000622820186B28A01C6F2800006F280800D9
:1000E0000310A10CA00CFF3E0318702820087E28E6
:1000F000A009A109A00A0319A10A08008313031388
:100100008312640008008316FF3085008601831285
:100110000530B6000130B4000430B3001420BB0039
:100120003B08A000A10106308400013001200A3004
:040130004E208828AD
:02400E006D3F04
:00000001FF
